{
    "_format": "hh-sol-artifact-1",
    "contractName": "AgriTrade",
    "sourceName": "contracts/Market.sol",
    "abi": [
        {
            "anonymous": false,
            "inputs": [
                {
                    "indexed": true,
                    "internalType": "uint256",
                    "name": "cropId",
                    "type": "uint256"
                },
                {
                    "indexed": false,
                    "internalType": "string",
                    "name": "name",
                    "type": "string"
                },
                {
                    "indexed": false,
                    "internalType": "address",
                    "name": "farmerAddress",
                    "type": "address"
                }
            ],
            "name": "CropPosted",
            "type": "event"
        },
        {
            "anonymous": false,
            "inputs": [
                {
                    "indexed": true,
                    "internalType": "uint256",
                    "name": "cropId",
                    "type": "uint256"
                }
            ],
            "name": "CropRemoved",
            "type": "event"
        },
        {
            "anonymous": false,
            "inputs": [
                {
                    "indexed": true,
                    "internalType": "uint256",
                    "name": "cropId",
                    "type": "uint256"
                },
                {
                    "indexed": true,
                    "internalType": "address",
                    "name": "traderAddress",
                    "type": "address"
                }
            ],
            "name": "InterestExpressed",
            "type": "event"
        },
        {
            "anonymous": false,
            "inputs": [
                {
                    "indexed": true,
                    "internalType": "uint256",
                    "name": "cropId",
                    "type": "uint256"
                },
                {
                    "indexed": true,
                    "internalType": "address",
                    "name": "traderAddress",
                    "type": "address"
                }
            ],
            "name": "TraderApproved",
            "type": "event"
        },
        {
            "anonymous": false,
            "inputs": [
                {
                    "indexed": true,
                    "internalType": "address",
                    "name": "userAddress",
                    "type": "address"
                },
                {
                    "indexed": false,
                    "internalType": "string",
                    "name": "name",
                    "type": "string"
                },
                {
                    "indexed": false,
                    "internalType": "bool",
                    "name": "isFarmer",
                    "type": "bool"
                }
            ],
            "name": "UserRegistered",
            "type": "event"
        },
        {
            "inputs": [
                {
                    "internalType": "uint256",
                    "name": "_cropId",
                    "type": "uint256"
                },
                {
                    "internalType": "address",
                    "name": "_traderAddress",
                    "type": "address"
                }
            ],
            "name": "approveTrader",
            "outputs": [],
            "stateMutability": "nonpayable",
            "type": "function"
        },
        {
            "inputs": [],
            "name": "cropCount",
            "outputs": [
                {
                    "internalType": "uint256",
                    "name": "",
                    "type": "uint256"
                }
            ],
            "stateMutability": "view",
            "type": "function"
        },
        {
            "inputs": [
                {
                    "internalType": "uint256",
                    "name": "",
                    "type": "uint256"
                },
                {
                    "internalType": "uint256",
                    "name": "",
                    "type": "uint256"
                }
            ],
            "name": "cropInterests",
            "outputs": [
                {
                    "internalType": "address",
                    "name": "traderAddress",
                    "type": "address"
                },
                {
                    "internalType": "string",
                    "name": "traderName",
                    "type": "string"
                },
                {
                    "internalType": "string",
                    "name": "traderPhone",
                    "type": "string"
                },
                {
                    "internalType": "bool",
                    "name": "farmerApproved",
                    "type": "bool"
                }
            ],
            "stateMutability": "view",
            "type": "function"
        },
        {
            "inputs": [
                {
                    "internalType": "uint256",
                    "name": "",
                    "type": "uint256"
                }
            ],
            "name": "crops",
            "outputs": [
                {
                    "internalType": "uint256",
                    "name": "id",
                    "type": "uint256"
                },
                {
                    "internalType": "string",
                    "name": "name",
                    "type": "string"
                },
                {
                    "internalType": "string",
                    "name": "location",
                    "type": "string"
                },
                {
                    "internalType": "string",
                    "name": "phone",
                    "type": "string"
                },
                {
                    "internalType": "uint256",
                    "name": "quantity",
                    "type": "uint256"
                },
                {
                    "internalType": "uint256",
                    "name": "expectedPrice",
                    "type": "uint256"
                },
                {
                    "internalType": "string",
                    "name": "comments",
                    "type": "string"
                },
                {
                    "internalType": "address",
                    "name": "farmerAddress",
                    "type": "address"
                },
                {
                    "internalType": "bool",
                    "name": "isActive",
                    "type": "bool"
                },
                {
                    "internalType": "address",
                    "name": "approvedTrader",
                    "type": "address"
                }
            ],
            "stateMutability": "view",
            "type": "function"
        },
        {
            "inputs": [
                {
                    "internalType": "uint256",
                    "name": "_cropId",
                    "type": "uint256"
                },
                {
                    "internalType": "string",
                    "name": "_phone",
                    "type": "string"
                }
            ],
            "name": "expressInterest",
            "outputs": [],
            "stateMutability": "nonpayable",
            "type": "function"
        },
        {
            "inputs": [],
            "name": "getCrops",
            "outputs": [
                {
                    "components": [
                        {
                            "internalType": "uint256",
                            "name": "id",
                            "type": "uint256"
                        },
                        {
                            "internalType": "string",
                            "name": "name",
                            "type": "string"
                        },
                        {
                            "internalType": "string",
                            "name": "location",
                            "type": "string"
                        },
                        {
                            "internalType": "string",
                            "name": "phone",
                            "type": "string"
                        },
                        {
                            "internalType": "uint256",
                            "name": "quantity",
                            "type": "uint256"
                        },
                        {
                            "internalType": "uint256",
                            "name": "expectedPrice",
                            "type": "uint256"
                        },
                        {
                            "internalType": "string",
                            "name": "comments",
                            "type": "string"
                        },
                        {
                            "internalType": "address",
                            "name": "farmerAddress",
                            "type": "address"
                        },
                        {
                            "internalType": "bool",
                            "name": "isActive",
                            "type": "bool"
                        },
                        {
                            "internalType": "address",
                            "name": "approvedTrader",
                            "type": "address"
                        }
                    ],
                    "internalType": "struct AgriTrade.Crop[]",
                    "name": "",
                    "type": "tuple[]"
                }
            ],
            "stateMutability": "view",
            "type": "function"
        },
        {
            "inputs": [
                {
                    "internalType": "uint256",
                    "name": "_cropId",
                    "type": "uint256"
                }
            ],
            "name": "getInterests",
            "outputs": [
                {
                    "components": [
                        {
                            "internalType": "address",
                            "name": "traderAddress",
                            "type": "address"
                        },
                        {
                            "internalType": "string",
                            "name": "traderName",
                            "type": "string"
                        },
                        {
                            "internalType": "string",
                            "name": "traderPhone",
                            "type": "string"
                        },
                        {
                            "internalType": "bool",
                            "name": "farmerApproved",
                            "type": "bool"
                        }
                    ],
                    "internalType": "struct AgriTrade.Interest[]",
                    "name": "",
                    "type": "tuple[]"
                }
            ],
            "stateMutability": "view",
            "type": "function"
        },
        {
            "inputs": [
                {
                    "internalType": "string",
                    "name": "_name",
                    "type": "string"
                },
                {
                    "internalType": "string",
                    "name": "_location",
                    "type": "string"
                },
                {
                    "internalType": "string",
                    "name": "_phone",
                    "type": "string"
                },
                {
                    "internalType": "uint256",
                    "name": "_quantity",
                    "type": "uint256"
                },
                {
                    "internalType": "uint256",
                    "name": "_expectedPrice",
                    "type": "uint256"
                },
                {
                    "internalType": "string",
                    "name": "_comments",
                    "type": "string"
                }
            ],
            "name": "postCrop",
            "outputs": [],
            "stateMutability": "nonpayable",
            "type": "function"
        },
        {
            "inputs": [
                {
                    "internalType": "string",
                    "name": "_name",
                    "type": "string"
                },
                {
                    "internalType": "bool",
                    "name": "_isFarmer",
                    "type": "bool"
                },
                {
                    "internalType": "string",
                    "name": "_phone",
                    "type": "string"
                }
            ],
            "name": "registerUser",
            "outputs": [],
            "stateMutability": "nonpayable",
            "type": "function"
        },
        {
            "inputs": [
                {
                    "internalType": "uint256",
                    "name": "_cropId",
                    "type": "uint256"
                }
            ],
            "name": "removeCrop",
            "outputs": [],
            "stateMutability": "nonpayable",
            "type": "function"
        },
        {
            "inputs": [
                {
                    "internalType": "address",
                    "name": "",
                    "type": "address"
                }
            ],
            "name": "users",
            "outputs": [
                {
                    "internalType": "string",
                    "name": "name",
                    "type": "string"
                },
                {
                    "internalType": "address",
                    "name": "walletAddress",
                    "type": "address"
                },
                {
                    "internalType": "bool",
                    "name": "isFarmer",
                    "type": "bool"
                },
                {
                    "internalType": "string",
                    "name": "phone",
                    "type": "string"
                }
            ],
            "stateMutability": "view",
            "type": "function"
        }
    ],
    "bytecode": "0x608060405234801561001057600080fd5b5061320a806100206000396000f3fe608060405234801561001057600080fd5b50600436106100a95760003560e01c8063a4c7d31511610071578063a4c7d31514610170578063a87430ba1461018c578063ac3c65bc146101bf578063b64025e3146101ef578063dfd55a2c1461020b578063eae250f214610229576100a9565b80635f073f3a146100ae57806368a23b25146100cc57806370c9f1a5146100ff578063881283b114610138578063a17cf69814610154575b600080fd5b6100b6610245565b6040516100c391906122c5565b60405180910390f35b6100e660048036038101906100e19190612327565b610b5d565b6040516100f694939291906123cf565b60405180910390f35b61011960048036038101906101149190612422565b610ce7565b60405161012f9a9998979695949392919061245e565b60405180910390f35b610152600480360381019061014d919061264b565b610fa8565b005b61016e600480360381019061016991906126d3565b6112b6565b005b61018a6004803603810190610185919061275e565b6114e8565b005b6101a660048036038101906101a19190612887565b611788565b6040516101b694939291906128b4565b60405180910390f35b6101d960048036038101906101d49190612422565b6118f5565b6040516101e69190612a33565b60405180910390f35b61020960048036038101906102049190612422565b611ba0565b005b610213611ca3565b6040516102209190612a55565b60405180910390f35b610243600480360381019061023e9190612a70565b611ca9565b005b6060600060035467ffffffffffffffff81111561026557610264612520565b5b60405190808252806020026020018201604052801561029e57816020015b61028b611f8e565b8152602001906001900390816102835790505b509050600080600190505b6003548111610aa3576001600082815260200190815260200160002060070160149054906101000a900460ff1615610a90576000803373ffffffffffffffffffffffffffffffffffffffff1673ffffffffffffffffffffffffffffffffffffffff16815260200190815260200160002060010160149054906101000a900460ff1615610716573373ffffffffffffffffffffffffffffffffffffffff166001600083815260200190815260200160002060070160009054906101000a900473ffffffffffffffffffffffffffffffffffffffff1673ffffffffffffffffffffffffffffffffffffffff1603610711576001600082815260200190815260200160002060405180610140016040529081600082015481526020016001820180546103d190612adf565b80601f01602080910402602001604051908101604052809291908181526020018280546103fd90612adf565b801561044a5780601f1061041f5761010080835404028352916020019161044a565b820191906000526020600020905b81548152906001019060200180831161042d57829003601f168201915b5050505050815260200160028201805461046390612adf565b80601f016020809104026020016040519081016040528092919081815260200182805461048f90612adf565b80156104dc5780601f106104b1576101008083540402835291602001916104dc565b820191906000526020600020905b8154815290600101906020018083116104bf57829003601f168201915b505050505081526020016003820180546104f590612adf565b80601f016020809104026020016040519081016040528092919081815260200182805461052190612adf565b801561056e5780601f106105435761010080835404028352916020019161056e565b820191906000526020600020905b81548152906001019060200180831161055157829003601f168201915b50505050508152602001600482015481526020016005820154815260200160068201805461059b90612adf565b80601f01602080910402602001604051908101604052809291908181526020018280546105c790612adf565b80156106145780601f106105e957610100808354040283529160200191610614565b820191906000526020600020905b8154815290600101906020018083116105f757829003601f168201915b505050505081526020016007820160009054906101000a900473ffffffffffffffffffffffffffffffffffffffff1673ffffffffffffffffffffffffffffffffffffffff1673ffffffffffffffffffffffffffffffffffffffff1681526020016007820160149054906101000a900460ff161515151581526020016008820160009054906101000a900473ffffffffffffffffffffffffffffffffffffffff1673ffffffffffffffffffffffffffffffffffffffff1673ffffffffffffffffffffffffffffffffffffffff16815250508383815181106106f7576106f6612b10565b5b6020026020010181905250818061070d90612b6e565b9250505b610a8f565b60016000828152602001908152602001600020604051806101400160405290816000820154815260200160018201805461074f90612adf565b80601f016020809104026020016040519081016040528092919081815260200182805461077b90612adf565b80156107c85780601f1061079d576101008083540402835291602001916107c8565b820191906000526020600020905b8154815290600101906020018083116107ab57829003601f168201915b505050505081526020016002820180546107e190612adf565b80601f016020809104026020016040519081016040528092919081815260200182805461080d90612adf565b801561085a5780601f1061082f5761010080835404028352916020019161085a565b820191906000526020600020905b81548152906001019060200180831161083d57829003601f168201915b5050505050815260200160038201805461087390612adf565b80601f016020809104026020016040519081016040528092919081815260200182805461089f90612adf565b80156108ec5780601f106108c1576101008083540402835291602001916108ec565b820191906000526020600020905b8154815290600101906020018083116108cf57829003601f168201915b50505050508152602001600482015481526020016005820154815260200160068201805461091990612adf565b80601f016020809104026020016040519081016040528092919081815260200182805461094590612adf565b80156109925780601f1061096757610100808354040283529160200191610992565b820191906000526020600020905b81548152906001019060200180831161097557829003601f168201915b505050505081526020016007820160009054906101000a900473ffffffffffffffffffffffffffffffffffffffff1673ffffffffffffffffffffffffffffffffffffffff1673ffffffffffffffffffffffffffffffffffffffff1681526020016007820160149054906101000a900460ff161515151581526020016008820160009054906101000a900473ffffffffffffffffffffffffffffffffffffffff1673ffffffffffffffffffffffffffffffffffffffff1673ffffffffffffffffffffffffffffffffffffffff1681525050838381518110610a7557610a74612b10565b5b60200260200101819052508180610a8b90612b6e565b9250505b5b8080610a9b90612b6e565b9150506102a9565b5060008167ffffffffffffffff811115610ac057610abf612520565b5b604051908082528060200260200182016040528015610af957816020015b610ae6611f8e565b815260200190600190039081610ade5790505b50905060005b82811015610b5357838181518110610b1a57610b19612b10565b5b6020026020010151828281518110610b3557610b34612b10565b5b60200260200101819052508080610b4b90612b6e565b915050610aff565b5080935050505090565b60026020528160005260406000208181548110610b7957600080fd5b9060005260206000209060040201600091509150508060000160009054906101000a900473ffffffffffffffffffffffffffffffffffffffff1690806001018054610bc390612adf565b80601f0160208091040260200160405190810160405280929190818152602001828054610bef90612adf565b8015610c3c5780601f10610c1157610100808354040283529160200191610c3c565b820191906000526020600020905b815481529060010190602001808311610c1f57829003601f168201915b505050505090806002018054610c5190612adf565b80601f0160208091040260200160405190810160405280929190818152602001828054610c7d90612adf565b8015610cca5780601f10610c9f57610100808354040283529160200191610cca565b820191906000526020600020905b815481529060010190602001808311610cad57829003601f168201915b5050505050908060030160009054906101000a900460ff16905084565b6001602052806000526040600020600091509050806000015490806001018054610d1090612adf565b80601f0160208091040260200160405190810160405280929190818152602001828054610d3c90612adf565b8015610d895780601f10610d5e57610100808354040283529160200191610d89565b820191906000526020600020905b815481529060010190602001808311610d6c57829003601f168201915b505050505090806002018054610d9e90612adf565b80601f0160208091040260200160405190810160405280929190818152602001828054610dca90612adf565b8015610e175780601f10610dec57610100808354040283529160200191610e17565b820191906000526020600020905b815481529060010190602001808311610dfa57829003601f168201915b505050505090806003018054610e2c90612adf565b80601f0160208091040260200160405190810160405280929190818152602001828054610e5890612adf565b8015610ea55780601f10610e7a57610100808354040283529160200191610ea5565b820191906000526020600020905b815481529060010190602001808311610e8857829003601f168201915b505050505090806004015490806005015490806006018054610ec690612adf565b80601f0160208091040260200160405190810160405280929190818152602001828054610ef290612adf565b8015610f3f5780601f10610f1457610100808354040283529160200191610f3f565b820191906000526020600020905b815481529060010190602001808311610f2257829003601f168201915b5050505050908060070160009054906101000a900473ffffffffffffffffffffffffffffffffffffffff16908060070160149054906101000a900460ff16908060080160009054906101000a900473ffffffffffffffffffffffffffffffffffffffff1690508a565b6000803373ffffffffffffffffffffffffffffffffffffffff1673ffffffffffffffffffffffffffffffffffffffff16815260200190815260200160002060010160149054906101000a900460ff1615611037576040517f08c379a000000000000000000000000000000000000000000000000000000000815260040161102e90612c28565b60405180910390fd5b6001600083815260200190815260200160002060070160149054906101000a900460ff1661109a576040517f08c379a000000000000000000000000000000000000000000000000000000000815260040161109190612c94565b60405180910390fd5b6002600083815260200190815260200160002060405180608001604052803373ffffffffffffffffffffffffffffffffffffffff1681526020016000803373ffffffffffffffffffffffffffffffffffffffff1673ffffffffffffffffffffffffffffffffffffffff168152602001908152602001600020600001805461112090612adf565b80601f016020809104026020016040519081016040528092919081815260200182805461114c90612adf565b80156111995780601f1061116e57610100808354040283529160200191611199565b820191906000526020600020905b81548152906001019060200180831161117c57829003601f168201915b5050505050815260200183815260200160001515815250908060018154018082558091505060019003906000526020600020906004020160009091909190915060008201518160000160006101000a81548173ffffffffffffffffffffffffffffffffffffffff021916908373ffffffffffffffffffffffffffffffffffffffff16021790555060208201518160010190816112359190612e60565b50604082015181600201908161124b9190612e60565b5060608201518160030160006101000a81548160ff02191690831515021790555050503373ffffffffffffffffffffffffffffffffffffffff16827ff4bbe362f314aaa4e2c6ab74a9685e56eb611de018f5caaece09409e9a9769a060405160405180910390a35050565b600073ffffffffffffffffffffffffffffffffffffffff166000803373ffffffffffffffffffffffffffffffffffffffff1673ffffffffffffffffffffffffffffffffffffffff16815260200190815260200160002060010160009054906101000a900473ffffffffffffffffffffffffffffffffffffffff1673ffffffffffffffffffffffffffffffffffffffff1614611386576040517f08c379a000000000000000000000000000000000000000000000000000000000815260040161137d90612f7e565b60405180910390fd5b60405180608001604052808481526020013373ffffffffffffffffffffffffffffffffffffffff1681526020018315158152602001828152506000803373ffffffffffffffffffffffffffffffffffffffff1673ffffffffffffffffffffffffffffffffffffffff16815260200190815260200160002060008201518160000190816114129190612e60565b5060208201518160010160006101000a81548173ffffffffffffffffffffffffffffffffffffffff021916908373ffffffffffffffffffffffffffffffffffffffff16021790555060408201518160010160146101000a81548160ff021916908315150217905550606082015181600201908161148f9190612e60565b509050503373ffffffffffffffffffffffffffffffffffffffff167f0b2d2fe99b0620e0994de6f522eb19dcc5b5fd39b27be67cea0547c4ed9dbdfc84846040516114db929190612f9e565b60405180910390a2505050565b6000803373ffffffffffffffffffffffffffffffffffffffff1673ffffffffffffffffffffffffffffffffffffffff16815260200190815260200160002060010160149054906101000a900460ff16611576576040517f08c379a000000000000000000000000000000000000000000000000000000000815260040161156d9061301a565b60405180910390fd5b6003600081548092919061158990612b6e565b919050555060405180610140016040528060035481526020018781526020018681526020018581526020018481526020018381526020018281526020013373ffffffffffffffffffffffffffffffffffffffff168152602001600115158152602001600073ffffffffffffffffffffffffffffffffffffffff1681525060016000600354815260200190815260200160002060008201518160000155602082015181600101908161163a9190612e60565b5060408201518160020190816116509190612e60565b5060608201518160030190816116669190612e60565b506080820151816004015560a0820151816005015560c08201518160060190816116909190612e60565b5060e08201518160070160006101000a81548173ffffffffffffffffffffffffffffffffffffffff021916908373ffffffffffffffffffffffffffffffffffffffff1602179055506101008201518160070160146101000a81548160ff0219169083151502179055506101208201518160080160006101000a81548173ffffffffffffffffffffffffffffffffffffffff021916908373ffffffffffffffffffffffffffffffffffffffff1602179055509050506003547fff0bdc5f142ef15f7e708d4a6b1d24b77d967938e33fb7da84f74f9b54f77dba873360405161177892919061303a565b60405180910390a2505050505050565b60006020528060005260406000206000915090508060000180546117ab90612adf565b80601f01602080910402602001604051908101604052809291908181526020018280546117d790612adf565b80156118245780601f106117f957610100808354040283529160200191611824565b820191906000526020600020905b81548152906001019060200180831161180757829003601f168201915b5050505050908060010160009054906101000a900473ffffffffffffffffffffffffffffffffffffffff16908060010160149054906101000a900460ff169080600201805461187290612adf565b80601f016020809104026020016040519081016040528092919081815260200182805461189e90612adf565b80156118eb5780601f106118c0576101008083540402835291602001916118eb565b820191906000526020600020905b8154815290600101906020018083116118ce57829003601f168201915b5050505050905084565b60603373ffffffffffffffffffffffffffffffffffffffff166001600084815260200190815260200160002060070160009054906101000a900473ffffffffffffffffffffffffffffffffffffffff1673ffffffffffffffffffffffffffffffffffffffff161461199b576040517f08c379a0000000000000000000000000000000000000000000000000000000008152600401611992906130dc565b60405180910390fd5b60026000838152602001908152602001600020805480602002602001604051908101604052809291908181526020016000905b82821015611b9557838290600052602060002090600402016040518060800160405290816000820160009054906101000a900473ffffffffffffffffffffffffffffffffffffffff1673ffffffffffffffffffffffffffffffffffffffff1673ffffffffffffffffffffffffffffffffffffffff168152602001600182018054611a5790612adf565b80601f0160208091040260200160405190810160405280929190818152602001828054611a8390612adf565b8015611ad05780601f10611aa557610100808354040283529160200191611ad0565b820191906000526020600020905b815481529060010190602001808311611ab357829003601f168201915b50505050508152602001600282018054611ae990612adf565b80601f0160208091040260200160405190810160405280929190818152602001828054611b1590612adf565b8015611b625780601f10611b3757610100808354040283529160200191611b62565b820191906000526020600020905b815481529060010190602001808311611b4557829003601f168201915b505050505081526020016003820160009054906101000a900460ff161515151581525050815260200190600101906119ce565b505050509050919050565b3373ffffffffffffffffffffffffffffffffffffffff166001600083815260200190815260200160002060070160009054906101000a900473ffffffffffffffffffffffffffffffffffffffff1673ffffffffffffffffffffffffffffffffffffffff1614611c44576040517f08c379a0000000000000000000000000000000000000000000000000000000008152600401611c3b90613148565b60405180910390fd5b60006001600083815260200190815260200160002060070160146101000a81548160ff021916908315150217905550807fdc20302ac574fe9523d4ddccef345afde1c0687625c8f3289389e34c9c120ccc60405160405180910390a250565b60035481565b3373ffffffffffffffffffffffffffffffffffffffff166001600084815260200190815260200160002060070160009054906101000a900473ffffffffffffffffffffffffffffffffffffffff1673ffffffffffffffffffffffffffffffffffffffff1614611d4d576040517f08c379a0000000000000000000000000000000000000000000000000000000008152600401611d44906131b4565b60405180910390fd5b6001600083815260200190815260200160002060070160149054906101000a900460ff16611db0576040517f08c379a0000000000000000000000000000000000000000000000000000000008152600401611da790612c94565b60405180910390fd5b60005b6002600084815260200190815260200160002080549050811015611f89578173ffffffffffffffffffffffffffffffffffffffff16600260008581526020019081526020016000208281548110611e0d57611e0c612b10565b5b906000526020600020906004020160000160009054906101000a900473ffffffffffffffffffffffffffffffffffffffff1673ffffffffffffffffffffffffffffffffffffffff1603611f76576001600260008581526020019081526020016000208281548110611e8157611e80612b10565b5b906000526020600020906004020160030160006101000a81548160ff021916908315150217905550816001600085815260200190815260200160002060080160006101000a81548173ffffffffffffffffffffffffffffffffffffffff021916908373ffffffffffffffffffffffffffffffffffffffff16021790555060006001600085815260200190815260200160002060070160146101000a81548160ff0219169083151502179055508173ffffffffffffffffffffffffffffffffffffffff16837f23608f9b4f86b3399f3a8deb852c4b51403467ffe6b7912a33d876389915233d60405160405180910390a3611f89565b8080611f8190612b6e565b915050611db3565b505050565b60405180610140016040528060008152602001606081526020016060815260200160608152602001600081526020016000815260200160608152602001600073ffffffffffffffffffffffffffffffffffffffff168152602001600015158152602001600073ffffffffffffffffffffffffffffffffffffffff1681525090565b600081519050919050565b600082825260208201905092915050565b6000819050602082019050919050565b6000819050919050565b61204e8161203b565b82525050565b600081519050919050565b600082825260208201905092915050565b60005b8381101561208e578082015181840152602081019050612073565b60008484015250505050565b6000601f19601f8301169050919050565b60006120b682612054565b6120c0818561205f565b93506120d0818560208601612070565b6120d98161209a565b840191505092915050565b600073ffffffffffffffffffffffffffffffffffffffff82169050919050565b600061210f826120e4565b9050919050565b61211f81612104565b82525050565b60008115159050919050565b61213a81612125565b82525050565b6000610140830160008301516121596000860182612045565b506020830151848203602086015261217182826120ab565b9150506040830151848203604086015261218b82826120ab565b915050606083015184820360608601526121a582826120ab565b91505060808301516121ba6080860182612045565b5060a08301516121cd60a0860182612045565b5060c083015184820360c08601526121e582826120ab565b91505060e08301516121fa60e0860182612116565b5061010083015161220f610100860182612131565b50610120830151612224610120860182612116565b508091505092915050565b600061223b8383612140565b905092915050565b6000602082019050919050565b600061225b8261200f565b612265818561201a565b9350836020820285016122778561202b565b8060005b858110156122b35784840389528151612294858261222f565b945061229f83612243565b925060208a0199505060018101905061227b565b50829750879550505050505092915050565b600060208201905081810360008301526122df8184612250565b905092915050565b6000604051905090565b600080fd5b600080fd5b6123048161203b565b811461230f57600080fd5b50565b600081359050612321816122fb565b92915050565b6000806040838503121561233e5761233d6122f1565b5b600061234c85828601612312565b925050602061235d85828601612312565b9150509250929050565b61237081612104565b82525050565b600082825260208201905092915050565b600061239282612054565b61239c8185612376565b93506123ac818560208601612070565b6123b58161209a565b840191505092915050565b6123c981612125565b82525050565b60006080820190506123e46000830187612367565b81810360208301526123f68186612387565b9050818103604083015261240a8185612387565b905061241960608301846123c0565b95945050505050565b600060208284031215612438576124376122f1565b5b600061244684828501612312565b91505092915050565b6124588161203b565b82525050565b600061014082019050612474600083018d61244f565b8181036020830152612486818c612387565b9050818103604083015261249a818b612387565b905081810360608301526124ae818a612387565b90506124bd608083018961244f565b6124ca60a083018861244f565b81810360c08301526124dc8187612387565b90506124eb60e0830186612367565b6124f96101008301856123c0565b612507610120830184612367565b9b9a5050505050505050505050565b600080fd5b600080fd5b7f4e487b7100000000000000000000000000000000000000000000000000000000600052604160045260246000fd5b6125588261209a565b810181811067ffffffffffffffff8211171561257757612576612520565b5b80604052505050565b600061258a6122e7565b9050612596828261254f565b919050565b600067ffffffffffffffff8211156125b6576125b5612520565b5b6125bf8261209a565b9050602081019050919050565b82818337600083830152505050565b60006125ee6125e98461259b565b612580565b90508281526020810184848401111561260a5761260961251b565b5b6126158482856125cc565b509392505050565b600082601f83011261263257612631612516565b5b81356126428482602086016125db565b91505092915050565b60008060408385031215612662576126616122f1565b5b600061267085828601612312565b925050602083013567ffffffffffffffff811115612691576126906122f6565b5b61269d8582860161261d565b9150509250929050565b6126b081612125565b81146126bb57600080fd5b50565b6000813590506126cd816126a7565b92915050565b6000806000606084860312156126ec576126eb6122f1565b5b600084013567ffffffffffffffff81111561270a576127096122f6565b5b6127168682870161261d565b9350506020612727868287016126be565b925050604084013567ffffffffffffffff811115612748576127476122f6565b5b6127548682870161261d565b9150509250925092565b60008060008060008060c0878903121561277b5761277a6122f1565b5b600087013567ffffffffffffffff811115612799576127986122f6565b5b6127a589828a0161261d565b965050602087013567ffffffffffffffff8111156127c6576127c56122f6565b5b6127d289828a0161261d565b955050604087013567ffffffffffffffff8111156127f3576127f26122f6565b5b6127ff89828a0161261d565b945050606061281089828a01612312565b935050608061282189828a01612312565b92505060a087013567ffffffffffffffff811115612842576128416122f6565b5b61284e89828a0161261d565b9150509295509295509295565b61286481612104565b811461286f57600080fd5b50565b6000813590506128818161285b565b92915050565b60006020828403121561289d5761289c6122f1565b5b60006128ab84828501612872565b91505092915050565b600060808201905081810360008301526128ce8187612387565b90506128dd6020830186612367565b6128ea60408301856123c0565b81810360608301526128fc8184612387565b905095945050505050565b600081519050919050565b600082825260208201905092915050565b6000819050602082019050919050565b600060808301600083015161294b6000860182612116565b506020830151848203602086015261296382826120ab565b9150506040830151848203604086015261297d82826120ab565b91505060608301516129926060860182612131565b508091505092915050565b60006129a98383612933565b905092915050565b6000602082019050919050565b60006129c982612907565b6129d38185612912565b9350836020820285016129e585612923565b8060005b85811015612a215784840389528151612a02858261299d565b9450612a0d836129b1565b925060208a019950506001810190506129e9565b50829750879550505050505092915050565b60006020820190508181036000830152612a4d81846129be565b905092915050565b6000602082019050612a6a600083018461244f565b92915050565b60008060408385031215612a8757612a866122f1565b5b6000612a9585828601612312565b9250506020612aa685828601612872565b9150509250929050565b7f4e487b7100000000000000000000000000000000000000000000000000000000600052602260045260246000fd5b60006002820490506001821680612af757607f821691505b602082108103612b0a57612b09612ab0565b5b50919050565b7f4e487b7100000000000000000000000000000000000000000000000000000000600052603260045260246000fd5b7f4e487b7100000000000000000000000000000000000000000000000000000000600052601160045260246000fd5b6000612b798261203b565b91507fffffffffffffffffffffffffffffffffffffffffffffffffffffffffffffffff8203612bab57612baa612b3f565b5b600182019050919050565b7f4f6e6c7920747261646572732063616e206578707265737320696e746572657360008201527f7400000000000000000000000000000000000000000000000000000000000000602082015250565b6000612c12602183612376565b9150612c1d82612bb6565b604082019050919050565b60006020820190508181036000830152612c4181612c05565b9050919050565b7f43726f70206973206e6f7420617661696c61626c650000000000000000000000600082015250565b6000612c7e601583612376565b9150612c8982612c48565b602082019050919050565b60006020820190508181036000830152612cad81612c71565b9050919050565b60008190508160005260206000209050919050565b60006020601f8301049050919050565b600082821b905092915050565b600060088302612d167fffffffffffffffffffffffffffffffffffffffffffffffffffffffffffffffff82612cd9565b612d208683612cd9565b95508019841693508086168417925050509392505050565b6000819050919050565b6000612d5d612d58612d538461203b565b612d38565b61203b565b9050919050565b6000819050919050565b612d7783612d42565b612d8b612d8382612d64565b848454612ce6565b825550505050565b600090565b612da0612d93565b612dab818484612d6e565b505050565b5b81811015612dcf57612dc4600082612d98565b600181019050612db1565b5050565b601f821115612e1457612de581612cb4565b612dee84612cc9565b81016020851015612dfd578190505b612e11612e0985612cc9565b830182612db0565b50505b505050565b600082821c905092915050565b6000612e3760001984600802612e19565b1980831691505092915050565b6000612e508383612e26565b9150826002028217905092915050565b612e6982612054565b67ffffffffffffffff811115612e8257612e81612520565b5b612e8c8254612adf565b612e97828285612dd3565b600060209050601f831160018114612eca5760008415612eb8578287015190505b612ec28582612e44565b865550612f2a565b601f198416612ed886612cb4565b60005b82811015612f0057848901518255600182019150602085019450602081019050612edb565b86831015612f1d5784890151612f19601f891682612e26565b8355505b6001600288020188555050505b505050505050565b7f5573657220616c72656164792072656769737465726564000000000000000000600082015250565b6000612f68601783612376565b9150612f7382612f32565b602082019050919050565b60006020820190508181036000830152612f9781612f5b565b9050919050565b60006040820190508181036000830152612fb88185612387565b9050612fc760208301846123c0565b9392505050565b7f4f6e6c79206661726d6572732063616e20706f73742063726f70730000000000600082015250565b6000613004601b83612376565b915061300f82612fce565b602082019050919050565b6000602082019050818103600083015261303381612ff7565b9050919050565b600060408201905081810360008301526130548185612387565b90506130636020830184612367565b9392505050565b7f4f6e6c792063726f70206f776e65722063616e207669657720696e746572657360008201527f7473000000000000000000000000000000000000000000000000000000000000602082015250565b60006130c6602283612376565b91506130d18261306a565b604082019050919050565b600060208201905081810360008301526130f5816130b9565b9050919050565b7f4f6e6c792063726f70206f776e65722063616e2072656d6f7665000000000000600082015250565b6000613132601a83612376565b915061313d826130fc565b602082019050919050565b6000602082019050818103600083015261316181613125565b9050919050565b7f4f6e6c792063726f70206f776e65722063616e20617070726f76650000000000600082015250565b600061319e601b83612376565b91506131a982613168565b602082019050919050565b600060208201905081810360008301526131cd81613191565b905091905056fea264697066735822122012e5606bb2bb158702abbb75ac00c2bd57ebfb54e70b1801953daa44e69e892364736f6c63430008140033",
    "linkReferences": {},
    "deployedLinkReferences": {}
}